{
  "contractName": "funder",
  "abi": [
    {
      "inputs": [],
      "name": "numoffunder",
      "outputs": [
        {
          "internalType": "uint256",
          "name": "",
          "type": "uint256"
        }
      ],
      "stateMutability": "view",
      "type": "function"
    },
    {
      "inputs": [],
      "name": "recive",
      "outputs": [],
      "stateMutability": "nonpayable",
      "type": "function"
    },
    {
      "inputs": [],
      "name": "trasfer",
      "outputs": [],
      "stateMutability": "payable",
      "type": "function"
    },
    {
      "inputs": [
        {
          "internalType": "uint256",
          "name": "amount",
          "type": "uint256"
        }
      ],
      "name": "withdraw",
      "outputs": [],
      "stateMutability": "nonpayable",
      "type": "function"
    }
  ],
  "bytecode": "0x608060405234801561001057600080fd5b506102f0806100206000396000f3fe60806040526004361061003f5760003560e01c80632e1a7d4d1461004457806335897cad1461006d578063adb497c114610084578063baa153591461008e575b600080fd5b34801561005057600080fd5b5061006b600480360381019061006691906101e6565b6100b9565b005b34801561007957600080fd5b5061008261014e565b005b61008c610150565b005b34801561009a57600080fd5b506100a36101a5565b6040516100b09190610222565b60405180910390f35b671bc16d674ec80000811115610104576040517f08c379a00000000000000000000000000000000000000000000000000000000081526004016100fb9061029a565b60405180910390fd5b3373ffffffffffffffffffffffffffffffffffffffff166108fc829081150290604051600060405180830381858888f1935050505015801561014a573d6000803e3d6000fd5b5050565b565b33600160008054815260200190815260200160002060006101000a81548173ffffffffffffffffffffffffffffffffffffffff021916908373ffffffffffffffffffffffffffffffffffffffff160217905550565b60005481565b600080fd5b6000819050919050565b6101c3816101b0565b81146101ce57600080fd5b50565b6000813590506101e0816101ba565b92915050565b6000602082840312156101fc576101fb6101ab565b5b600061020a848285016101d1565b91505092915050565b61021c816101b0565b82525050565b60006020820190506102376000830184610213565b92915050565b600082825260208201905092915050565b7f6c696d6974206973203220657468657200000000000000000000000000000000600082015250565b600061028460108361023d565b915061028f8261024e565b602082019050919050565b600060208201905081810360008301526102b381610277565b905091905056fea2646970667358221220c9721169312c05bfc7a1ce81d11140d878b0497aa4df8f560ccec31970a4483664736f6c634300080e0033",
  "immutableReferences": {},
  "source": "// SPDX-License-Identifier: MIT\r\npragma solidity >=0.4.22 <0.9.0;\r\n\r\ncontract funder {\r\n    uint256 public numoffunder;\r\n\r\n    mapping(uint256 => address) private funders;\r\n\r\n    function recive() external{}\r\n\r\n    function trasfer() external payable {\r\n        funders[numoffunder] = msg.sender;\r\n    }\r\n\r\n    function withdraw(uint256 amount) external {\r\n        require(amount <= 2000000000000000000,\"limit is 2 ether\");\r\n        payable(msg.sender).transfer(amount); \r\n    }\r\n}\r\n",
  "sourcePath": "C:\\Users\\ACER\\Desktop\\dapps\\contracts\\funder.sol",
  "compiler": {
    "name": "solc",
    "version": "0.8.14+commit.80d49f37.Emscripten.clang"
  },
  "schemaVersion": "3.4.7",
  "updatedAt": "2022-06-10T08:29:28.726Z",
  "devdoc": {
    "kind": "dev",
    "methods": {},
    "version": 1
  },
  "userdoc": {
    "kind": "user",
    "methods": {},
    "version": 1
  }
}